{
  "contractName": "RandomNumberGenerator",
  "abi": [
    {
      "inputs": [
        {
          "internalType": "address",
          "name": "_vrfCoordinator",
          "type": "address"
        },
        {
          "internalType": "address",
          "name": "_linkToken",
          "type": "address"
        }
      ],
      "stateMutability": "nonpayable",
      "type": "constructor"
    },
    {
      "anonymous": false,
      "inputs": [
        {
          "indexed": true,
          "internalType": "address",
          "name": "previousOwner",
          "type": "address"
        },
        {
          "indexed": true,
          "internalType": "address",
          "name": "newOwner",
          "type": "address"
        }
      ],
      "name": "OwnershipTransferred",
      "type": "event"
    },
    {
      "inputs": [],
      "name": "fee",
      "outputs": [
        {
          "internalType": "uint256",
          "name": "",
          "type": "uint256"
        }
      ],
      "stateMutability": "view",
      "type": "function",
      "constant": true
    },
    {
      "inputs": [],
      "name": "keyHash",
      "outputs": [
        {
          "internalType": "bytes32",
          "name": "",
          "type": "bytes32"
        }
      ],
      "stateMutability": "view",
      "type": "function",
      "constant": true
    },
    {
      "inputs": [],
      "name": "latestLotteryId",
      "outputs": [
        {
          "internalType": "uint256",
          "name": "",
          "type": "uint256"
        }
      ],
      "stateMutability": "view",
      "type": "function",
      "constant": true
    },
    {
      "inputs": [],
      "name": "latestRequestId",
      "outputs": [
        {
          "internalType": "bytes32",
          "name": "",
          "type": "bytes32"
        }
      ],
      "stateMutability": "view",
      "type": "function",
      "constant": true
    },
    {
      "inputs": [],
      "name": "owner",
      "outputs": [
        {
          "internalType": "address",
          "name": "",
          "type": "address"
        }
      ],
      "stateMutability": "view",
      "type": "function",
      "constant": true
    },
    {
      "inputs": [],
      "name": "pancakeSwapLottery",
      "outputs": [
        {
          "internalType": "address",
          "name": "",
          "type": "address"
        }
      ],
      "stateMutability": "view",
      "type": "function",
      "constant": true
    },
    {
      "inputs": [],
      "name": "randomResult",
      "outputs": [
        {
          "internalType": "uint32",
          "name": "",
          "type": "uint32"
        }
      ],
      "stateMutability": "view",
      "type": "function",
      "constant": true
    },
    {
      "inputs": [
        {
          "internalType": "bytes32",
          "name": "requestId",
          "type": "bytes32"
        },
        {
          "internalType": "uint256",
          "name": "randomness",
          "type": "uint256"
        }
      ],
      "name": "rawFulfillRandomness",
      "outputs": [],
      "stateMutability": "nonpayable",
      "type": "function"
    },
    {
      "inputs": [],
      "name": "renounceOwnership",
      "outputs": [],
      "stateMutability": "nonpayable",
      "type": "function"
    },
    {
      "inputs": [
        {
          "internalType": "address",
          "name": "newOwner",
          "type": "address"
        }
      ],
      "name": "transferOwnership",
      "outputs": [],
      "stateMutability": "nonpayable",
      "type": "function"
    },
    {
      "inputs": [
        {
          "internalType": "uint256",
          "name": "_seed",
          "type": "uint256"
        }
      ],
      "name": "getRandomNumber",
      "outputs": [],
      "stateMutability": "nonpayable",
      "type": "function"
    },
    {
      "inputs": [
        {
          "internalType": "uint256",
          "name": "_fee",
          "type": "uint256"
        }
      ],
      "name": "setFee",
      "outputs": [],
      "stateMutability": "nonpayable",
      "type": "function"
    },
    {
      "inputs": [
        {
          "internalType": "bytes32",
          "name": "_keyHash",
          "type": "bytes32"
        }
      ],
      "name": "setKeyHash",
      "outputs": [],
      "stateMutability": "nonpayable",
      "type": "function"
    },
    {
      "inputs": [
        {
          "internalType": "address",
          "name": "_pancakeSwapLottery",
          "type": "address"
        }
      ],
      "name": "setLotteryAddress",
      "outputs": [],
      "stateMutability": "nonpayable",
      "type": "function"
    },
    {
      "inputs": [
        {
          "internalType": "address",
          "name": "_tokenAddress",
          "type": "address"
        },
        {
          "internalType": "uint256",
          "name": "_tokenAmount",
          "type": "uint256"
        }
      ],
      "name": "withdrawTokens",
      "outputs": [],
      "stateMutability": "nonpayable",
      "type": "function"
    },
    {
      "inputs": [],
      "name": "viewLatestLotteryId",
      "outputs": [
        {
          "internalType": "uint256",
          "name": "",
          "type": "uint256"
        }
      ],
      "stateMutability": "view",
      "type": "function",
      "constant": true
    },
    {
      "inputs": [],
      "name": "viewRandomResult",
      "outputs": [
        {
          "internalType": "uint32",
          "name": "",
          "type": "uint32"
        }
      ],
      "stateMutability": "view",
      "type": "function",
      "constant": true
    }
  ],
  "bytecode": "0x60c060405234801561001057600080fd5b50604051610f5e380380610f5e83398101604081905261002f916100c3565b6001600160601b0319606083811b821660a05282901b1660805260006100523390565b600180546001600160a01b0319166001600160a01b038316908117909155604051919250906000907f8be0079c531659141344cd1fd0a4f28419497f9722a3daafe3b4186f6b6457e0908290a35050506100f6565b80516001600160a01b03811681146100be57600080fd5b919050565b600080604083850312156100d657600080fd5b6100df836100a7565b91506100ed602084016100a7565b90509250929050565b60805160601c60a05160601c610e2f61012f6000396000818161039201526108490152600081816104f9015261081a0152610e2f6000f3fe608060405234801561001057600080fd5b506004361061010b5760003560e01c80638da5cb5b116100a2578063b37217a411610071578063b37217a41461020d578063ddca3f4314610220578063eed8e1ee14610229578063f2fde38b14610232578063fbe5d9171461024557600080fd5b80638da5cb5b146101c857806394985ddd146101d957806398544710146101ec578063a1c4f55a146101ff57600080fd5b80634bf3057d116100de5780634bf3057d1461017957806361728f39146101a457806369fe0e2d146101ad578063715018a6146101c057600080fd5b806306b091f9146101105780631aa46f59146101255780632a332b2a1461014157806342619f6614610154575b600080fd5b61012361011e366004610c21565b61024d565b005b61012e60045481565b6040519081526020015b60405180910390f35b61012361014f366004610c06565b610298565b6005546101649063ffffffff1681565b60405163ffffffff9091168152602001610138565b60025461018c906001600160a01b031681565b6040516001600160a01b039091168152602001610138565b61012e60035481565b6101236101bb366004610c6d565b6102e4565b610123610313565b6001546001600160a01b031661018c565b6101236101e7366004610c86565b610387565b6101236101fa366004610c6d565b610409565b60055463ffffffff16610164565b61012361021b366004610c6d565b610438565b61012e60065481565b61012e60075481565b610123610240366004610c06565b6105d7565b60075461012e565b6001546001600160a01b031633146102805760405162461bcd60e51b815260040161027790610d4c565b60405180910390fd5b6102946001600160a01b03831633836106c2565b5050565b6001546001600160a01b031633146102c25760405162461bcd60e51b815260040161027790610d4c565b600280546001600160a01b0319166001600160a01b0392909216919091179055565b6001546001600160a01b0316331461030e5760405162461bcd60e51b815260040161027790610d4c565b600655565b6001546001600160a01b0316331461033d5760405162461bcd60e51b815260040161027790610d4c565b6001546040516000916001600160a01b0316907f8be0079c531659141344cd1fd0a4f28419497f9722a3daafe3b4186f6b6457e0908390a3600180546001600160a01b0319169055565b336001600160a01b037f000000000000000000000000000000000000000000000000000000000000000016146103ff5760405162461bcd60e51b815260206004820152601f60248201527f4f6e6c7920565246436f6f7264696e61746f722063616e2066756c66696c6c006044820152606401610277565b6102948282610719565b6001546001600160a01b031633146104335760405162461bcd60e51b815260040161027790610d4c565b600355565b6002546001600160a01b031633146104925760405162461bcd60e51b815260206004820152601760248201527f4f6e6c792050616e63616b65537761704c6f74746572790000000000000000006044820152606401610277565b6003546104e15760405162461bcd60e51b815260206004820152601860248201527f4d75737420686176652076616c6964206b6579206861736800000000000000006044820152606401610277565b6006546040516370a0823160e01b81523060048201527f00000000000000000000000000000000000000000000000000000000000000006001600160a01b0316906370a082319060240160206040518083038186803b15801561054357600080fd5b505afa158015610557573d6000803e3d6000fd5b505050506040513d601f19601f8201168201806040525081019061057b9190610ca8565b10156105c25760405162461bcd60e51b81526020600482015260166024820152754e6f7420656e6f756768204c494e4b20746f6b656e7360501b6044820152606401610277565b6105d160035460065483610816565b60045550565b6001546001600160a01b031633146106015760405162461bcd60e51b815260040161027790610d4c565b6001600160a01b0381166106665760405162461bcd60e51b815260206004820152602660248201527f4f776e61626c653a206e6577206f776e657220697320746865207a65726f206160448201526564647265737360d01b6064820152608401610277565b6001546040516001600160a01b038084169216907f8be0079c531659141344cd1fd0a4f28419497f9722a3daafe3b4186f6b6457e090600090a3600180546001600160a01b0319166001600160a01b0392909216919091179055565b604080516001600160a01b038416602482015260448082018490528251808303909101815260649091019091526020810180516001600160e01b031663a9059cbb60e01b1790526107149084906109a0565b505050565b816004541461075c5760405162461bcd60e51b815260206004820152600f60248201526e15dc9bdb99c81c995c5d595cdd1259608a1b6044820152606401610277565b610769620f424082610dd7565b61077690620f4240610d81565b6005805463ffffffff191663ffffffff9290921691909117905560025460408051630405030b60e51b815290516001600160a01b03909216916380a06160916004808201926020929091908290030181600087803b1580156107d757600080fd5b505af11580156107eb573d6000803e3d6000fd5b505050506040513d601f19601f8201168201806040525081019061080f9190610ca8565b6007555050565b60007f00000000000000000000000000000000000000000000000000000000000000006001600160a01b0316634000aea07f0000000000000000000000000000000000000000000000000000000000000000858786604051602001610885929190918252602082015260400190565b6040516020818303038152906040526040518463ffffffff1660e01b81526004016108b293929190610d09565b602060405180830381600087803b1580156108cc57600080fd5b505af11580156108e0573d6000803e3d6000fd5b505050506040513d601f19601f820116820180604052508101906109049190610c4b565b5060008481526020818152604080832054815180840189905280830187905230606082015260808082018390528351808303909101815260a09091019092528151918301919091208784529290915261095e906001610d81565b600086815260208181526040918290209290925580518083018890528082019390935280518084038201815260609093019052815191012090505b9392505050565b60006109f5826040518060400160405280602081526020017f5361666545524332303a206c6f772d6c6576656c2063616c6c206661696c6564815250856001600160a01b0316610a729092919063ffffffff16565b8051909150156107145780806020019051810190610a139190610c4b565b6107145760405162461bcd60e51b815260206004820152602a60248201527f5361666545524332303a204552433230206f7065726174696f6e20646964206e6044820152691bdd081cdd58d8d9595960b21b6064820152608401610277565b6060610a818484600085610a89565b949350505050565b606082471015610aea5760405162461bcd60e51b815260206004820152602660248201527f416464726573733a20696e73756666696369656e742062616c616e636520666f6044820152651c8818d85b1b60d21b6064820152608401610277565b843b610b385760405162461bcd60e51b815260206004820152601d60248201527f416464726573733a2063616c6c20746f206e6f6e2d636f6e74726163740000006044820152606401610277565b600080866001600160a01b03168587604051610b549190610ced565b60006040518083038185875af1925050503d8060008114610b91576040519150601f19603f3d011682016040523d82523d6000602084013e610b96565b606091505b5091509150610ba6828286610bb1565b979650505050505050565b60608315610bc0575081610999565b825115610bd05782518084602001fd5b8160405162461bcd60e51b81526004016102779190610d39565b80356001600160a01b0381168114610c0157600080fd5b919050565b600060208284031215610c1857600080fd5b61099982610bea565b60008060408385031215610c3457600080fd5b610c3d83610bea565b946020939093013593505050565b600060208284031215610c5d57600080fd5b8151801515811461099957600080fd5b600060208284031215610c7f57600080fd5b5035919050565b60008060408385031215610c9957600080fd5b50508035926020909101359150565b600060208284031215610cba57600080fd5b5051919050565b60008151808452610cd9816020860160208601610da7565b601f01601f19169290920160200192915050565b60008251610cff818460208701610da7565b9190910192915050565b60018060a01b0384168152826020820152606060408201526000610d306060830184610cc1565b95945050505050565b6020815260006109996020830184610cc1565b6020808252818101527f4f776e61626c653a2063616c6c6572206973206e6f7420746865206f776e6572604082015260600190565b60008219821115610da257634e487b7160e01b600052601160045260246000fd5b500190565b60005b83811015610dc2578181015183820152602001610daa565b83811115610dd1576000848401525b50505050565b600082610df457634e487b7160e01b600052601260045260246000fd5b50069056fea2646970667358221220b3ace1999d2c1ea2f23962429e3cbc63d57b5bc74d5c8d51cc2ef6689ca61a6f64736f6c63430008060033",
  "immutableReferences": {
    "968": [
      {
        "length": 32,
        "start": 1273
      },
      {
        "length": 32,
        "start": 2074
      }
    ],
    "970": [
      {
        "length": 32,
        "start": 914
      },
      {
        "length": 32,
        "start": 2121
      }
    ]
  },
  "source": "/**\r\n *Submitted for verification at BscScan.com on 2021-07-02\r\n*/\r\n\r\n// File: @openzeppelin/contracts/utils/Context.sol\r\n\r\n// SPDX-License-Identifier: MIT\r\n\r\npragma solidity ^0.8.0;\r\n\r\n/*\r\n * @dev Provides information about the current execution context, including the\r\n * sender of the transaction and its data. While these are generally available\r\n * via msg.sender and msg.data, they should not be accessed in such a direct\r\n * manner, since when dealing with meta-transactions the account sending and\r\n * paying for execution may not be the actual sender (as far as an application\r\n * is concerned).\r\n *\r\n * This contract is only required for intermediate, library-like contracts.\r\n */\r\nabstract contract Context {\r\n    function _msgSender() internal view virtual returns (address) {\r\n        return msg.sender;\r\n    }\r\n\r\n    function _msgData() internal view virtual returns (bytes calldata) {\r\n        this; // silence state mutability warning without generating bytecode - see https://github.com/ethereum/solidity/issues/2691\r\n        return msg.data;\r\n    }\r\n}\r\n\r\n// File: @openzeppelin/contracts/access/Ownable.sol\r\n\r\npragma solidity ^0.8.0;\r\n\r\n/**\r\n * @dev Contract module which provides a basic access control mechanism, where\r\n * there is an account (an owner) that can be granted exclusive access to\r\n * specific functions.\r\n *\r\n * By default, the owner account will be the one that deploys the contract. This\r\n * can later be changed with {transferOwnership}.\r\n *\r\n * This module is used through inheritance. It will make available the modifier\r\n * `onlyOwner`, which can be applied to your functions to restrict their use to\r\n * the owner.\r\n */\r\nabstract contract Ownable is Context {\r\n    address private _owner;\r\n\r\n    event OwnershipTransferred(address indexed previousOwner, address indexed newOwner);\r\n\r\n    /**\r\n     * @dev Initializes the contract setting the deployer as the initial owner.\r\n     */\r\n    constructor() {\r\n        address msgSender = _msgSender();\r\n        _owner = msgSender;\r\n        emit OwnershipTransferred(address(0), msgSender);\r\n    }\r\n\r\n    /**\r\n     * @dev Returns the address of the current owner.\r\n     */\r\n    function owner() public view virtual returns (address) {\r\n        return _owner;\r\n    }\r\n\r\n    /**\r\n     * @dev Throws if called by any account other than the owner.\r\n     */\r\n    modifier onlyOwner() {\r\n        require(owner() == _msgSender(), \"Ownable: caller is not the owner\");\r\n        _;\r\n    }\r\n\r\n    /**\r\n     * @dev Leaves the contract without owner. It will not be possible to call\r\n     * `onlyOwner` functions anymore. Can only be called by the current owner.\r\n     *\r\n     * NOTE: Renouncing ownership will leave the contract without an owner,\r\n     * thereby removing any functionality that is only available to the owner.\r\n     */\r\n    function renounceOwnership() public virtual onlyOwner {\r\n        emit OwnershipTransferred(_owner, address(0));\r\n        _owner = address(0);\r\n    }\r\n\r\n    /**\r\n     * @dev Transfers ownership of the contract to a new account (`newOwner`).\r\n     * Can only be called by the current owner.\r\n     */\r\n    function transferOwnership(address newOwner) public virtual onlyOwner {\r\n        require(newOwner != address(0), \"Ownable: new owner is the zero address\");\r\n        emit OwnershipTransferred(_owner, newOwner);\r\n        _owner = newOwner;\r\n    }\r\n}\r\n\r\n// File: @openzeppelin/contracts/token/ERC20/IERC20.sol\r\n\r\npragma solidity ^0.8.0;\r\n\r\n/**\r\n * @dev Interface of the ERC20 standard as defined in the EIP.\r\n */\r\ninterface IERC20 {\r\n    /**\r\n     * @dev Returns the amount of tokens in existence.\r\n     */\r\n    function totalSupply() external view returns (uint256);\r\n\r\n    /**\r\n     * @dev Returns the amount of tokens owned by `account`.\r\n     */\r\n    function balanceOf(address account) external view returns (uint256);\r\n\r\n    /**\r\n     * @dev Moves `amount` tokens from the caller's account to `recipient`.\r\n     *\r\n     * Returns a boolean value indicating whether the operation succeeded.\r\n     *\r\n     * Emits a {Transfer} event.\r\n     */\r\n    function transfer(address recipient, uint256 amount) external returns (bool);\r\n\r\n    /**\r\n     * @dev Returns the remaining number of tokens that `spender` will be\r\n     * allowed to spend on behalf of `owner` through {transferFrom}. This is\r\n     * zero by default.\r\n     *\r\n     * This value changes when {approve} or {transferFrom} are called.\r\n     */\r\n    function allowance(address owner, address spender) external view returns (uint256);\r\n\r\n    /**\r\n     * @dev Sets `amount` as the allowance of `spender` over the caller's tokens.\r\n     *\r\n     * Returns a boolean value indicating whether the operation succeeded.\r\n     *\r\n     * IMPORTANT: Beware that changing an allowance with this method brings the risk\r\n     * that someone may use both the old and the new allowance by unfortunate\r\n     * transaction ordering. One possible solution to mitigate this race\r\n     * condition is to first reduce the spender's allowance to 0 and set the\r\n     * desired value afterwards:\r\n     * https://github.com/ethereum/EIPs/issues/20#issuecomment-263524729\r\n     *\r\n     * Emits an {Approval} event.\r\n     */\r\n    function approve(address spender, uint256 amount) external returns (bool);\r\n\r\n    /**\r\n     * @dev Moves `amount` tokens from `sender` to `recipient` using the\r\n     * allowance mechanism. `amount` is then deducted from the caller's\r\n     * allowance.\r\n     *\r\n     * Returns a boolean value indicating whether the operation succeeded.\r\n     *\r\n     * Emits a {Transfer} event.\r\n     */\r\n    function transferFrom(\r\n        address sender,\r\n        address recipient,\r\n        uint256 amount\r\n    ) external returns (bool);\r\n\r\n    /**\r\n     * @dev Emitted when `value` tokens are moved from one account (`from`) to\r\n     * another (`to`).\r\n     *\r\n     * Note that `value` may be zero.\r\n     */\r\n    event Transfer(address indexed from, address indexed to, uint256 value);\r\n\r\n    /**\r\n     * @dev Emitted when the allowance of a `spender` for an `owner` is set by\r\n     * a call to {approve}. `value` is the new allowance.\r\n     */\r\n    event Approval(address indexed owner, address indexed spender, uint256 value);\r\n}\r\n\r\n// File: @openzeppelin/contracts/utils/Address.sol\r\n\r\npragma solidity ^0.8.0;\r\n\r\n/**\r\n * @dev Collection of functions related to the address type\r\n */\r\nlibrary Address {\r\n    /**\r\n     * @dev Returns true if `account` is a contract.\r\n     *\r\n     * [IMPORTANT]\r\n     * ====\r\n     * It is unsafe to assume that an address for which this function returns\r\n     * false is an externally-owned account (EOA) and not a contract.\r\n     *\r\n     * Among others, `isContract` will return false for the following\r\n     * types of addresses:\r\n     *\r\n     *  - an externally-owned account\r\n     *  - a contract in construction\r\n     *  - an address where a contract will be created\r\n     *  - an address where a contract lived, but was destroyed\r\n     * ====\r\n     */\r\n    function isContract(address account) internal view returns (bool) {\r\n        // This method relies on extcodesize, which returns 0 for contracts in\r\n        // construction, since the code is only stored at the end of the\r\n        // constructor execution.\r\n\r\n        uint256 size;\r\n        // solhint-disable-next-line no-inline-assembly\r\n        assembly {\r\n            size := extcodesize(account)\r\n        }\r\n        return size > 0;\r\n    }\r\n\r\n    /**\r\n     * @dev Replacement for Solidity's `transfer`: sends `amount` wei to\r\n     * `recipient`, forwarding all available gas and reverting on errors.\r\n     *\r\n     * https://eips.ethereum.org/EIPS/eip-1884[EIP1884] increases the gas cost\r\n     * of certain opcodes, possibly making contracts go over the 2300 gas limit\r\n     * imposed by `transfer`, making them unable to receive funds via\r\n     * `transfer`. {sendValue} removes this limitation.\r\n     *\r\n     * https://diligence.consensys.net/posts/2019/09/stop-using-soliditys-transfer-now/[Learn more].\r\n     *\r\n     * IMPORTANT: because control is transferred to `recipient`, care must be\r\n     * taken to not create reentrancy vulnerabilities. Consider using\r\n     * {ReentrancyGuard} or the\r\n     * https://solidity.readthedocs.io/en/v0.5.11/security-considerations.html#use-the-checks-effects-interactions-pattern[checks-effects-interactions pattern].\r\n     */\r\n    function sendValue(address payable recipient, uint256 amount) internal {\r\n        require(address(this).balance >= amount, \"Address: insufficient balance\");\r\n\r\n        // solhint-disable-next-line avoid-low-level-calls, avoid-call-value\r\n        (bool success, ) = recipient.call{value: amount}(\"\");\r\n        require(success, \"Address: unable to send value, recipient may have reverted\");\r\n    }\r\n\r\n    /**\r\n     * @dev Performs a Solidity function call using a low level `call`. A\r\n     * plain`call` is an unsafe replacement for a function call: use this\r\n     * function instead.\r\n     *\r\n     * If `target` reverts with a revert reason, it is bubbled up by this\r\n     * function (like regular Solidity function calls).\r\n     *\r\n     * Returns the raw returned data. To convert to the expected return value,\r\n     * use https://solidity.readthedocs.io/en/latest/units-and-global-variables.html?highlight=abi.decode#abi-encoding-and-decoding-functions[`abi.decode`].\r\n     *\r\n     * Requirements:\r\n     *\r\n     * - `target` must be a contract.\r\n     * - calling `target` with `data` must not revert.\r\n     *\r\n     * _Available since v3.1._\r\n     */\r\n    function functionCall(address target, bytes memory data) internal returns (bytes memory) {\r\n        return functionCall(target, data, \"Address: low-level call failed\");\r\n    }\r\n\r\n    /**\r\n     * @dev Same as {xref-Address-functionCall-address-bytes-}[`functionCall`], but with\r\n     * `errorMessage` as a fallback revert reason when `target` reverts.\r\n     *\r\n     * _Available since v3.1._\r\n     */\r\n    function functionCall(\r\n        address target,\r\n        bytes memory data,\r\n        string memory errorMessage\r\n    ) internal returns (bytes memory) {\r\n        return functionCallWithValue(target, data, 0, errorMessage);\r\n    }\r\n\r\n    /**\r\n     * @dev Same as {xref-Address-functionCall-address-bytes-}[`functionCall`],\r\n     * but also transferring `value` wei to `target`.\r\n     *\r\n     * Requirements:\r\n     *\r\n     * - the calling contract must have an ETH balance of at least `value`.\r\n     * - the called Solidity function must be `payable`.\r\n     *\r\n     * _Available since v3.1._\r\n     */\r\n    function functionCallWithValue(\r\n        address target,\r\n        bytes memory data,\r\n        uint256 value\r\n    ) internal returns (bytes memory) {\r\n        return functionCallWithValue(target, data, value, \"Address: low-level call with value failed\");\r\n    }\r\n\r\n    /**\r\n     * @dev Same as {xref-Address-functionCallWithValue-address-bytes-uint256-}[`functionCallWithValue`], but\r\n     * with `errorMessage` as a fallback revert reason when `target` reverts.\r\n     *\r\n     * _Available since v3.1._\r\n     */\r\n    function functionCallWithValue(\r\n        address target,\r\n        bytes memory data,\r\n        uint256 value,\r\n        string memory errorMessage\r\n    ) internal returns (bytes memory) {\r\n        require(address(this).balance >= value, \"Address: insufficient balance for call\");\r\n        require(isContract(target), \"Address: call to non-contract\");\r\n\r\n        // solhint-disable-next-line avoid-low-level-calls\r\n        (bool success, bytes memory returndata) = target.call{value: value}(data);\r\n        return _verifyCallResult(success, returndata, errorMessage);\r\n    }\r\n\r\n    /**\r\n     * @dev Same as {xref-Address-functionCall-address-bytes-}[`functionCall`],\r\n     * but performing a static call.\r\n     *\r\n     * _Available since v3.3._\r\n     */\r\n    function functionStaticCall(address target, bytes memory data) internal view returns (bytes memory) {\r\n        return functionStaticCall(target, data, \"Address: low-level static call failed\");\r\n    }\r\n\r\n    /**\r\n     * @dev Same as {xref-Address-functionCall-address-bytes-string-}[`functionCall`],\r\n     * but performing a static call.\r\n     *\r\n     * _Available since v3.3._\r\n     */\r\n    function functionStaticCall(\r\n        address target,\r\n        bytes memory data,\r\n        string memory errorMessage\r\n    ) internal view returns (bytes memory) {\r\n        require(isContract(target), \"Address: static call to non-contract\");\r\n\r\n        // solhint-disable-next-line avoid-low-level-calls\r\n        (bool success, bytes memory returndata) = target.staticcall(data);\r\n        return _verifyCallResult(success, returndata, errorMessage);\r\n    }\r\n\r\n    /**\r\n     * @dev Same as {xref-Address-functionCall-address-bytes-}[`functionCall`],\r\n     * but performing a delegate call.\r\n     *\r\n     * _Available since v3.4._\r\n     */\r\n    function functionDelegateCall(address target, bytes memory data) internal returns (bytes memory) {\r\n        return functionDelegateCall(target, data, \"Address: low-level delegate call failed\");\r\n    }\r\n\r\n    /**\r\n     * @dev Same as {xref-Address-functionCall-address-bytes-string-}[`functionCall`],\r\n     * but performing a delegate call.\r\n     *\r\n     * _Available since v3.4._\r\n     */\r\n    function functionDelegateCall(\r\n        address target,\r\n        bytes memory data,\r\n        string memory errorMessage\r\n    ) internal returns (bytes memory) {\r\n        require(isContract(target), \"Address: delegate call to non-contract\");\r\n\r\n        // solhint-disable-next-line avoid-low-level-calls\r\n        (bool success, bytes memory returndata) = target.delegatecall(data);\r\n        return _verifyCallResult(success, returndata, errorMessage);\r\n    }\r\n\r\n    function _verifyCallResult(\r\n        bool success,\r\n        bytes memory returndata,\r\n        string memory errorMessage\r\n    ) private pure returns (bytes memory) {\r\n        if (success) {\r\n            return returndata;\r\n        } else {\r\n            // Look for revert reason and bubble it up if present\r\n            if (returndata.length > 0) {\r\n                // The easiest way to bubble the revert reason is using memory via assembly\r\n\r\n                // solhint-disable-next-line no-inline-assembly\r\n                assembly {\r\n                    let returndata_size := mload(returndata)\r\n                    revert(add(32, returndata), returndata_size)\r\n                }\r\n            } else {\r\n                revert(errorMessage);\r\n            }\r\n        }\r\n    }\r\n}\r\n\r\n// File: @openzeppelin/contracts/token/ERC20/utils/SafeERC20.sol\r\n\r\npragma solidity ^0.8.0;\r\n\r\n/**\r\n * @title SafeERC20\r\n * @dev Wrappers around ERC20 operations that throw on failure (when the token\r\n * contract returns false). Tokens that return no value (and instead revert or\r\n * throw on failure) are also supported, non-reverting calls are assumed to be\r\n * successful.\r\n * To use this library you can add a `using SafeERC20 for IERC20;` statement to your contract,\r\n * which allows you to call the safe operations as `token.safeTransfer(...)`, etc.\r\n */\r\nlibrary SafeERC20 {\r\n    using Address for address;\r\n\r\n    function safeTransfer(\r\n        IERC20 token,\r\n        address to,\r\n        uint256 value\r\n    ) internal {\r\n        _callOptionalReturn(token, abi.encodeWithSelector(token.transfer.selector, to, value));\r\n    }\r\n\r\n    function safeTransferFrom(\r\n        IERC20 token,\r\n        address from,\r\n        address to,\r\n        uint256 value\r\n    ) internal {\r\n        _callOptionalReturn(token, abi.encodeWithSelector(token.transferFrom.selector, from, to, value));\r\n    }\r\n\r\n    /**\r\n     * @dev Deprecated. This function has issues similar to the ones found in\r\n     * {IERC20-approve}, and its usage is discouraged.\r\n     *\r\n     * Whenever possible, use {safeIncreaseAllowance} and\r\n     * {safeDecreaseAllowance} instead.\r\n     */\r\n    function safeApprove(\r\n        IERC20 token,\r\n        address spender,\r\n        uint256 value\r\n    ) internal {\r\n        // safeApprove should only be called when setting an initial allowance,\r\n        // or when resetting it to zero. To increase and decrease it, use\r\n        // 'safeIncreaseAllowance' and 'safeDecreaseAllowance'\r\n        // solhint-disable-next-line max-line-length\r\n        require(\r\n            (value == 0) || (token.allowance(address(this), spender) == 0),\r\n            \"SafeERC20: approve from non-zero to non-zero allowance\"\r\n        );\r\n        _callOptionalReturn(token, abi.encodeWithSelector(token.approve.selector, spender, value));\r\n    }\r\n\r\n    function safeIncreaseAllowance(\r\n        IERC20 token,\r\n        address spender,\r\n        uint256 value\r\n    ) internal {\r\n        uint256 newAllowance = token.allowance(address(this), spender) + value;\r\n        _callOptionalReturn(token, abi.encodeWithSelector(token.approve.selector, spender, newAllowance));\r\n    }\r\n\r\n    function safeDecreaseAllowance(\r\n        IERC20 token,\r\n        address spender,\r\n        uint256 value\r\n    ) internal {\r\n        unchecked {\r\n            uint256 oldAllowance = token.allowance(address(this), spender);\r\n            require(oldAllowance >= value, \"SafeERC20: decreased allowance below zero\");\r\n            uint256 newAllowance = oldAllowance - value;\r\n            _callOptionalReturn(token, abi.encodeWithSelector(token.approve.selector, spender, newAllowance));\r\n        }\r\n    }\r\n\r\n    /**\r\n     * @dev Imitates a Solidity high-level call (i.e. a regular function call to a contract), relaxing the requirement\r\n     * on the return value: the return value is optional (but if data is returned, it must not be false).\r\n     * @param token The token targeted by the call.\r\n     * @param data The call data (encoded using abi.encode or one of its variants).\r\n     */\r\n    function _callOptionalReturn(IERC20 token, bytes memory data) private {\r\n        // We need to perform a low level call here, to bypass Solidity's return data size checking mechanism, since\r\n        // we're implementing it ourselves. We use {Address.functionCall} to perform this call, which verifies that\r\n        // the target address contains contract code and also asserts for success in the low-level call.\r\n\r\n        bytes memory returndata = address(token).functionCall(data, \"SafeERC20: low-level call failed\");\r\n        if (returndata.length > 0) {\r\n            // Return data is optional\r\n            // solhint-disable-next-line max-line-length\r\n            require(abi.decode(returndata, (bool)), \"SafeERC20: ERC20 operation did not succeed\");\r\n        }\r\n    }\r\n}\r\n\r\n// File: @chainlink/contracts/src/v0.8/interfaces/LinkTokenInterface.sol\r\n\r\npragma solidity ^0.8.0;\r\n\r\ninterface LinkTokenInterface {\r\n    function allowance(address owner, address spender) external view returns (uint256 remaining);\r\n\r\n    function approve(address spender, uint256 value) external returns (bool success);\r\n\r\n    function balanceOf(address owner) external view returns (uint256 balance);\r\n\r\n    function decimals() external view returns (uint8 decimalPlaces);\r\n\r\n    function decreaseApproval(address spender, uint256 addedValue) external returns (bool success);\r\n\r\n    function increaseApproval(address spender, uint256 subtractedValue) external;\r\n\r\n    function name() external view returns (string memory tokenName);\r\n\r\n    function symbol() external view returns (string memory tokenSymbol);\r\n\r\n    function totalSupply() external view returns (uint256 totalTokensIssued);\r\n\r\n    function transfer(address to, uint256 value) external returns (bool success);\r\n\r\n    function transferAndCall(\r\n        address to,\r\n        uint256 value,\r\n        bytes calldata data\r\n    ) external returns (bool success);\r\n\r\n    function transferFrom(\r\n        address from,\r\n        address to,\r\n        uint256 value\r\n    ) external returns (bool success);\r\n}\r\n\r\n// File: @chainlink/contracts/src/v0.8/dev/VRFRequestIDBase.sol\r\n\r\npragma solidity ^0.8.0;\r\n\r\ncontract VRFRequestIDBase {\r\n    /**\r\n     * @notice returns the seed which is actually input to the VRF coordinator\r\n     *\r\n     * @dev To prevent repetition of VRF output due to repetition of the\r\n     * @dev user-supplied seed, that seed is combined in a hash with the\r\n     * @dev user-specific nonce, and the address of the consuming contract. The\r\n     * @dev risk of repetition is mostly mitigated by inclusion of a blockhash in\r\n     * @dev the final seed, but the nonce does protect against repetition in\r\n     * @dev requests which are included in a single block.\r\n     *\r\n     * @param _userSeed VRF seed input provided by user\r\n     * @param _requester Address of the requesting contract\r\n     * @param _nonce User-specific nonce at the time of the request\r\n     */\r\n    function makeVRFInputSeed(\r\n        bytes32 _keyHash,\r\n        uint256 _userSeed,\r\n        address _requester,\r\n        uint256 _nonce\r\n    ) internal pure returns (uint256) {\r\n        return uint256(keccak256(abi.encode(_keyHash, _userSeed, _requester, _nonce)));\r\n    }\r\n\r\n    /**\r\n     * @notice Returns the id for this request\r\n     * @param _keyHash The serviceAgreement ID to be used for this request\r\n     * @param _vRFInputSeed The seed to be passed directly to the VRF\r\n     * @return The id for this request\r\n     *\r\n     * @dev Note that _vRFInputSeed is not the seed passed by the consuming\r\n     * @dev contract, but the one generated by makeVRFInputSeed\r\n     */\r\n    function makeRequestId(bytes32 _keyHash, uint256 _vRFInputSeed) internal pure returns (bytes32) {\r\n        return keccak256(abi.encodePacked(_keyHash, _vRFInputSeed));\r\n    }\r\n}\r\n\r\n// File: @chainlink/contracts/src/v0.8/dev/VRFConsumerBase.sol\r\n\r\npragma solidity ^0.8.0;\r\n\r\n/** ****************************************************************************\r\n * @notice Interface for contracts using VRF randomness\r\n * *****************************************************************************\r\n * @dev PURPOSE\r\n *\r\n * @dev Reggie the Random Oracle (not his real job) wants to provide randomness\r\n * @dev to Vera the verifier in such a way that Vera can be sure he's not\r\n * @dev making his output up to suit himself. Reggie provides Vera a public key\r\n * @dev to which he knows the secret key. Each time Vera provides a seed to\r\n * @dev Reggie, he gives back a value which is computed completely\r\n * @dev deterministically from the seed and the secret key.\r\n *\r\n * @dev Reggie provides a proof by which Vera can verify that the output was\r\n * @dev correctly computed once Reggie tells it to her, but without that proof,\r\n * @dev the output is indistinguishable to her from a uniform random sample\r\n * @dev from the output space.\r\n *\r\n * @dev The purpose of this contract is to make it easy for unrelated contracts\r\n * @dev to talk to Vera the verifier about the work Reggie is doing, to provide\r\n * @dev simple access to a verifiable source of randomness.\r\n * *****************************************************************************\r\n * @dev USAGE\r\n *\r\n * @dev Calling contracts must inherit from VRFConsumerBase, and can\r\n * @dev initialize VRFConsumerBase's attributes in their constructor as\r\n * @dev shown:\r\n *\r\n * @dev   contract VRFConsumer {\r\n * @dev     constuctor(<other arguments>, address _vrfCoordinator, address _link)\r\n * @dev       VRFConsumerBase(_vrfCoordinator, _link) public {\r\n * @dev         <initialization with other arguments goes here>\r\n * @dev       }\r\n * @dev   }\r\n *\r\n * @dev The oracle will have given you an ID for the VRF keypair they have\r\n * @dev committed to (let's call it keyHash), and have told you the minimum LINK\r\n * @dev price for VRF service. Make sure your contract has sufficient LINK, and\r\n * @dev call requestRandomness(keyHash, fee, seed), where seed is the input you\r\n * @dev want to generate randomness from.\r\n *\r\n * @dev Once the VRFCoordinator has received and validated the oracle's response\r\n * @dev to your request, it will call your contract's fulfillRandomness method.\r\n *\r\n * @dev The randomness argument to fulfillRandomness is the actual random value\r\n * @dev generated from your seed.\r\n *\r\n * @dev The requestId argument is generated from the keyHash and the seed by\r\n * @dev makeRequestId(keyHash, seed). If your contract could have concurrent\r\n * @dev requests open, you can use the requestId to track which seed is\r\n * @dev associated with which randomness. See VRFRequestIDBase.sol for more\r\n * @dev details. (See \"SECURITY CONSIDERATIONS\" for principles to keep in mind,\r\n * @dev if your contract could have multiple requests in flight simultaneously.)\r\n *\r\n * @dev Colliding `requestId`s are cryptographically impossible as long as seeds\r\n * @dev differ. (Which is critical to making unpredictable randomness! See the\r\n * @dev next section.)\r\n *\r\n * *****************************************************************************\r\n * @dev SECURITY CONSIDERATIONS\r\n *\r\n * @dev A method with the ability to call your fulfillRandomness method directly\r\n * @dev could spoof a VRF response with any random value, so it's critical that\r\n * @dev it cannot be directly called by anything other than this base contract\r\n * @dev (specifically, by the VRFConsumerBase.rawFulfillRandomness method).\r\n *\r\n * @dev For your users to trust that your contract's random behavior is free\r\n * @dev from malicious interference, it's best if you can write it so that all\r\n * @dev behaviors implied by a VRF response are executed *during* your\r\n * @dev fulfillRandomness method. If your contract must store the response (or\r\n * @dev anything derived from it) and use it later, you must ensure that any\r\n * @dev user-significant behavior which depends on that stored value cannot be\r\n * @dev manipulated by a subsequent VRF request.\r\n *\r\n * @dev Similarly, both miners and the VRF oracle itself have some influence\r\n * @dev over the order in which VRF responses appear on the blockchain, so if\r\n * @dev your contract could have multiple VRF requests in flight simultaneously,\r\n * @dev you must ensure that the order in which the VRF responses arrive cannot\r\n * @dev be used to manipulate your contract's user-significant behavior.\r\n *\r\n * @dev Since the ultimate input to the VRF is mixed with the block hash of the\r\n * @dev block in which the request is made, user-provided seeds have no impact\r\n * @dev on its economic security properties. They are only included for API\r\n * @dev compatability with previous versions of this contract.\r\n *\r\n * @dev Since the block hash of the block which contains the requestRandomness\r\n * @dev call is mixed into the input to the VRF *last*, a sufficiently powerful\r\n * @dev miner could, in principle, fork the blockchain to evict the block\r\n * @dev containing the request, forcing the request to be included in a\r\n * @dev different block with a different hash, and therefore a different input\r\n * @dev to the VRF. However, such an attack would incur a substantial economic\r\n * @dev cost. This cost scales with the number of blocks the VRF oracle waits\r\n * @dev until it calls responds to a request.\r\n */\r\nabstract contract VRFConsumerBase is VRFRequestIDBase {\r\n    /**\r\n     * @notice fulfillRandomness handles the VRF response. Your contract must\r\n     * @notice implement it. See \"SECURITY CONSIDERATIONS\" above for important\r\n     * @notice principles to keep in mind when implementing your fulfillRandomness\r\n     * @notice method.\r\n     *\r\n     * @dev VRFConsumerBase expects its subcontracts to have a method with this\r\n     * @dev signature, and will call it once it has verified the proof\r\n     * @dev associated with the randomness. (It is triggered via a call to\r\n     * @dev rawFulfillRandomness, below.)\r\n     *\r\n     * @param requestId The Id initially returned by requestRandomness\r\n     * @param randomness the VRF output\r\n     */\r\n    function fulfillRandomness(bytes32 requestId, uint256 randomness) internal virtual;\r\n\r\n    /**\r\n     * @notice requestRandomness initiates a request for VRF output given _seed\r\n     *\r\n     * @dev The fulfillRandomness method receives the output, once it's provided\r\n     * @dev by the Oracle, and verified by the vrfCoordinator.\r\n     *\r\n     * @dev The _keyHash must already be registered with the VRFCoordinator, and\r\n     * @dev the _fee must exceed the fee specified during registration of the\r\n     * @dev _keyHash.\r\n     *\r\n     * @dev The _seed parameter is vestigial, and is kept only for API\r\n     * @dev compatibility with older versions. It can't *hurt* to mix in some of\r\n     * @dev your own randomness, here, but it's not necessary because the VRF\r\n     * @dev oracle will mix the hash of the block containing your request into the\r\n     * @dev VRF seed it ultimately uses.\r\n     *\r\n     * @param _keyHash ID of public key against which randomness is generated\r\n     * @param _fee The amount of LINK to send with the request\r\n     * @param _seed seed mixed into the input of the VRF.\r\n     *\r\n     * @return requestId unique ID for this request\r\n     *\r\n     * @dev The returned requestId can be used to distinguish responses to\r\n     * @dev concurrent requests. It is passed as the first argument to\r\n     * @dev fulfillRandomness.\r\n     */\r\n    function requestRandomness(\r\n        bytes32 _keyHash,\r\n        uint256 _fee,\r\n        uint256 _seed\r\n    ) internal returns (bytes32 requestId) {\r\n        LINK.transferAndCall(vrfCoordinator, _fee, abi.encode(_keyHash, _seed));\r\n        // This is the seed passed to VRFCoordinator. The oracle will mix this with\r\n        // the hash of the block containing this request to obtain the seed/input\r\n        // which is finally passed to the VRF cryptographic machinery.\r\n        uint256 vRFSeed = makeVRFInputSeed(_keyHash, _seed, address(this), nonces[_keyHash]);\r\n        // nonces[_keyHash] must stay in sync with\r\n        // VRFCoordinator.nonces[_keyHash][this], which was incremented by the above\r\n        // successful LINK.transferAndCall (in VRFCoordinator.randomnessRequest).\r\n        // This provides protection against the user repeating their input seed,\r\n        // which would result in a predictable/duplicate output, if multiple such\r\n        // requests appeared in the same block.\r\n        nonces[_keyHash] = nonces[_keyHash] + 1;\r\n        return makeRequestId(_keyHash, vRFSeed);\r\n    }\r\n\r\n    LinkTokenInterface internal immutable LINK;\r\n    address private immutable vrfCoordinator;\r\n\r\n    // Nonces for each VRF key from which randomness has been requested.\r\n    //\r\n    // Must stay in sync with VRFCoordinator[_keyHash][this]\r\n    mapping(bytes32 => uint256) /* keyHash */ /* nonce */\r\n        private nonces;\r\n\r\n    /**\r\n     * @param _vrfCoordinator address of VRFCoordinator contract\r\n     * @param _link address of LINK token contract\r\n     *\r\n     * @dev https://docs.chain.link/docs/link-token-contracts\r\n     */\r\n    constructor(address _vrfCoordinator, address _link) {\r\n        vrfCoordinator = _vrfCoordinator;\r\n        LINK = LinkTokenInterface(_link);\r\n    }\r\n\r\n    // rawFulfillRandomness is called by VRFCoordinator when it receives a valid VRF\r\n    // proof. rawFulfillRandomness then calls fulfillRandomness, after validating\r\n    // the origin of the call\r\n    function rawFulfillRandomness(bytes32 requestId, uint256 randomness) external {\r\n        require(msg.sender == vrfCoordinator, \"Only VRFCoordinator can fulfill\");\r\n        fulfillRandomness(requestId, randomness);\r\n    }\r\n}\r\n\r\n// File: contracts/interfaces/IRandomNumberGenerator.sol\r\n\r\npragma solidity ^0.8.4;\r\n\r\ninterface IRandomNumberGenerator {\r\n    /**\r\n     * Requests randomness from a user-provided seed\r\n     */\r\n    function getRandomNumber(uint256 _seed) external;\r\n\r\n    /**\r\n     * View latest lotteryId numbers\r\n     */\r\n    function viewLatestLotteryId() external view returns (uint256);\r\n\r\n    /**\r\n     * Views random result\r\n     */\r\n    function viewRandomResult() external view returns (uint32);\r\n}\r\n\r\n// File: contracts/interfaces/IPancakeSwapLottery.sol\r\n\r\npragma solidity ^0.8.4;\r\n\r\ninterface IPancakeSwapLottery {\r\n    /**\r\n     * @notice Buy tickets for the current lottery\r\n     * @param _lotteryId: lotteryId\r\n     * @param _ticketNumbers: array of ticket numbers between 1,000,000 and 1,999,999\r\n     * @dev Callable by users\r\n     */\r\n    function buyTickets(uint256 _lotteryId, uint32[] calldata _ticketNumbers) external;\r\n\r\n    /**\r\n     * @notice Claim a set of winning tickets for a lottery\r\n     * @param _lotteryId: lottery id\r\n     * @param _ticketIds: array of ticket ids\r\n     * @param _brackets: array of brackets for the ticket ids\r\n     * @dev Callable by users only, not contract!\r\n     */\r\n    function claimTickets(\r\n        uint256 _lotteryId,\r\n        uint256[] calldata _ticketIds,\r\n        uint32[] calldata _brackets\r\n    ) external;\r\n\r\n    /**\r\n     * @notice Close lottery\r\n     * @param _lotteryId: lottery id\r\n     * @dev Callable by operator\r\n     */\r\n    function closeLottery(uint256 _lotteryId) external;\r\n\r\n    /**\r\n     * @notice Draw the final number, calculate reward in CAKE per group, and make lottery claimable\r\n     * @param _lotteryId: lottery id\r\n     * @param _autoInjection: reinjects funds into next lottery (vs. withdrawing all)\r\n     * @dev Callable by operator\r\n     */\r\n    function drawFinalNumberAndMakeLotteryClaimable(uint256 _lotteryId, bool _autoInjection) external;\r\n\r\n    /**\r\n     * @notice Inject funds\r\n     * @param _lotteryId: lottery id\r\n     * @param _amount: amount to inject in CAKE token\r\n     * @dev Callable by operator\r\n     */\r\n    function injectFunds(uint256 _lotteryId, uint256 _amount) external;\r\n\r\n    /**\r\n     * @notice Start the lottery\r\n     * @dev Callable by operator\r\n     * @param _endTime: endTime of the lottery\r\n     * @param _priceTicketInToken: price of a ticket in CAKE\r\n     * @param _discountDivisor: the divisor to calculate the discount magnitude for bulks\r\n     * @param _rewardsBreakdown: breakdown of rewards per bracket (must sum to 10,000)\r\n     * @param _treasuryFee: treasury fee (10,000 = 100%, 100 = 1%)\r\n     */\r\n    function startLottery(\r\n        uint256 _endTime,\r\n        uint256 _priceTicketInToken,\r\n        uint256 _discountDivisor,\r\n        uint256[6] calldata _rewardsBreakdown,\r\n        uint256 _treasuryFee\r\n    ) external;\r\n\r\n    /**\r\n     * @notice View current lottery id\r\n     */\r\n    function viewCurrentLotteryId() external returns (uint256);\r\n}\r\n\r\n// File: contracts/RandomNumberGenerator.sol\r\n\r\npragma solidity ^0.8.4;\r\n\r\ncontract RandomNumberGenerator is VRFConsumerBase, IRandomNumberGenerator, Ownable {\r\n    using SafeERC20 for IERC20;\r\n\r\n    address public pancakeSwapLottery;\r\n    bytes32 public keyHash;\r\n    bytes32 public latestRequestId;\r\n    uint32 public randomResult;\r\n    uint256 public fee;\r\n    uint256 public latestLotteryId;\r\n\r\n    /**\r\n     * @notice Constructor\r\n     * @dev RandomNumberGenerator must be deployed before the lottery.\r\n     * Once the lottery contract is deployed, setLotteryAddress must be called.\r\n     * https://docs.chain.link/docs/vrf-contracts/\r\n     * @param _vrfCoordinator: address of the VRF coordinator\r\n     * @param _linkToken: address of the LINK token\r\n\r\n      /* For polygon:\r\n        LINK Token\t0xb0897686c545045aFc77CF20eC7A532E3120E0F1\r\n        VRF Coordinator\t0x3d2341ADb2D31f1c5530cDC622016af293177AE0\r\n        Key Hash\t0xf86195cf7690c55907b2b611ebb7343a6f649bff128701cc542f0569e2c549da\r\n        Fee\t0.0001 LINK  \r\n\r\n       For Mumbai:\r\n        LINK Token\t0x326C977E6efc84E512bB9C30f76E30c160eD06FB\r\n        VRF Coordinator\t0x8C7382F9D8f56b33781fE506E897a4F1e2d17255\r\n        Key Hash\t0x6e75b569a01ef56d18cab6a8e71e6600d6ce853834d4a5748b720d06f878b3a4\r\n        Fee\t0.0001 LINK\r\n    **/\r\n     \r\n    constructor(address _vrfCoordinator, address _linkToken) VRFConsumerBase(_vrfCoordinator, _linkToken) {\r\n        //\r\n    }\r\n\r\n    /**\r\n     * @notice Request randomness from a user-provided seed\r\n     * @param _seed: seed provided by the PancakeSwap lottery\r\n     */\r\n    function getRandomNumber(uint256 _seed) external override {\r\n        require(msg.sender == pancakeSwapLottery, \"Only PancakeSwapLottery\");\r\n        require(keyHash != bytes32(0), \"Must have valid key hash\");\r\n        require(LINK.balanceOf(address(this)) >= fee, \"Not enough LINK tokens\");\r\n\r\n        latestRequestId = requestRandomness(keyHash, fee, _seed);\r\n    }\r\n\r\n    /**\r\n     * @notice Change the fee\r\n     * @param _fee: new fee (in LINK)\r\n     */\r\n    function setFee(uint256 _fee) external onlyOwner {\r\n        fee = _fee;\r\n    }\r\n\r\n    /**\r\n     * @notice Change the keyHash\r\n     * @param _keyHash: new keyHash\r\n     */\r\n    function setKeyHash(bytes32 _keyHash) external onlyOwner {\r\n        keyHash = _keyHash;\r\n    }\r\n\r\n    /**\r\n     * @notice Set the address for the PancakeSwapLottery\r\n     * @param _pancakeSwapLottery: address of the PancakeSwap lottery\r\n     */\r\n    function setLotteryAddress(address _pancakeSwapLottery) external onlyOwner {\r\n        pancakeSwapLottery = _pancakeSwapLottery;\r\n    }\r\n\r\n    /**\r\n     * @notice It allows the admin to withdraw tokens sent to the contract\r\n     * @param _tokenAddress: the address of the token to withdraw\r\n     * @param _tokenAmount: the number of token amount to withdraw\r\n     * @dev Only callable by owner.\r\n     */\r\n    function withdrawTokens(address _tokenAddress, uint256 _tokenAmount) external onlyOwner {\r\n        IERC20(_tokenAddress).safeTransfer(address(msg.sender), _tokenAmount);\r\n    }\r\n\r\n    /**\r\n     * @notice View latestLotteryId\r\n     */\r\n    function viewLatestLotteryId() external view override returns (uint256) {\r\n        return latestLotteryId;\r\n    }\r\n\r\n    /**\r\n     * @notice View random result\r\n     */\r\n    function viewRandomResult() external view override returns (uint32) {\r\n        return randomResult;\r\n    }\r\n\r\n    /**\r\n     * @notice Callback function used by ChainLink's VRF Coordinator\r\n     */\r\n    function fulfillRandomness(bytes32 requestId, uint256 randomness) internal override {\r\n        require(latestRequestId == requestId, \"Wrong requestId\");\r\n        randomResult = uint32(1000000 + (randomness % 1000000));\r\n        latestLotteryId = IPancakeSwapLottery(pancakeSwapLottery).viewCurrentLotteryId();\r\n    }\r\n}",
  "sourcePath": "C:\\Users\\shiva\\OneDrive\\Desktop\\Yoda Lottery\\contracts\\RandomNumberGenerator.sol",
  "compiler": {
    "name": "solc",
    "version": "0.8.6+commit.11564f7e.Emscripten.clang"
  },
  "schemaVersion": "3.4.4",
  "updatedAt": "2022-04-13T10:55:10.895Z",
  "networkType": "ethereum",
  "devdoc": {
    "kind": "dev",
    "methods": {
      "constructor": {
        "details": "RandomNumberGenerator must be deployed before the lottery. Once the lottery contract is deployed, setLotteryAddress must be called. https://docs.chain.link/docs/vrf-contracts/",
        "params": {
          "_linkToken": ": address of the LINK token /* For polygon: LINK Token\t0xb0897686c545045aFc77CF20eC7A532E3120E0F1 VRF Coordinator\t0x3d2341ADb2D31f1c5530cDC622016af293177AE0 Key Hash\t0xf86195cf7690c55907b2b611ebb7343a6f649bff128701cc542f0569e2c549da Fee\t0.0001 LINK   For Mumbai: LINK Token\t0x326C977E6efc84E512bB9C30f76E30c160eD06FB VRF Coordinator\t0x8C7382F9D8f56b33781fE506E897a4F1e2d17255 Key Hash\t0x6e75b569a01ef56d18cab6a8e71e6600d6ce853834d4a5748b720d06f878b3a4 Fee\t0.0001 LINK*",
          "_vrfCoordinator": ": address of the VRF coordinator"
        }
      },
      "getRandomNumber(uint256)": {
        "params": {
          "_seed": ": seed provided by the PancakeSwap lottery"
        }
      },
      "owner()": {
        "details": "Returns the address of the current owner."
      },
      "renounceOwnership()": {
        "details": "Leaves the contract without owner. It will not be possible to call `onlyOwner` functions anymore. Can only be called by the current owner. NOTE: Renouncing ownership will leave the contract without an owner, thereby removing any functionality that is only available to the owner."
      },
      "setFee(uint256)": {
        "params": {
          "_fee": ": new fee (in LINK)"
        }
      },
      "setKeyHash(bytes32)": {
        "params": {
          "_keyHash": ": new keyHash"
        }
      },
      "setLotteryAddress(address)": {
        "params": {
          "_pancakeSwapLottery": ": address of the PancakeSwap lottery"
        }
      },
      "transferOwnership(address)": {
        "details": "Transfers ownership of the contract to a new account (`newOwner`). Can only be called by the current owner."
      },
      "withdrawTokens(address,uint256)": {
        "details": "Only callable by owner.",
        "params": {
          "_tokenAddress": ": the address of the token to withdraw",
          "_tokenAmount": ": the number of token amount to withdraw"
        }
      }
    },
    "version": 1
  },
  "userdoc": {
    "kind": "user",
    "methods": {
      "constructor": {
        "notice": "Constructor"
      },
      "getRandomNumber(uint256)": {
        "notice": "Request randomness from a user-provided seed"
      },
      "setFee(uint256)": {
        "notice": "Change the fee"
      },
      "setKeyHash(bytes32)": {
        "notice": "Change the keyHash"
      },
      "setLotteryAddress(address)": {
        "notice": "Set the address for the PancakeSwapLottery"
      },
      "viewLatestLotteryId()": {
        "notice": "View latestLotteryId"
      },
      "viewRandomResult()": {
        "notice": "View random result"
      },
      "withdrawTokens(address,uint256)": {
        "notice": "It allows the admin to withdraw tokens sent to the contract"
      }
    },
    "version": 1
  }
}